:100000000C942A000C94E5030C9447000C944700D0
:100010000C9447000C9447000C9447000C94470044
:100020000C9447000C9447000C9447000C94470034
:100030000C9447000C9447000C9447000C94470024
:100040000C9447000C9447000C9447000C94470014
:100050000C94470011241FBECFE5D8E0DEBFCDBF12
:1000600011E0A0E6B0E0ECE4FCE002C005900D92E7
:10007000A232B107D9F721E0A2E2B1E001C01D929E
:10008000AB32B207E1F70E944B050C9424060C94A6
:10009000000082BB85B38E7F85BB85B38D7F85BB1A
:1000A00082E08A95F1F700C085B3846085BB82E069
:1000B0008A95F1F700C085B38B7F85BB85E08A9573
:1000C000F1F70000089582BB85B3816085BB85B3DD
:1000D0008D7F85BB82E08A95F1F700C085B384608F
:1000E00085BB82E08A95F1F700C085B38B7F85BB25
:1000F00085E08A95F1F7000008958FEF84BB81BBFE
:1001000085E88A95F1F7000088E30E9449008CE0B9
:100110000E94490082E00E94490086E00E94490056
:10012000089581E00E94490082E00E9449008FE327
:100130009FE10197F1F700C000000895CF93DF938E
:10014000C0E0D0E00AC088E10E9449008FE097E259
:100150000197F1F700C000002196C031D1059CF352
:10016000DF91CF9108950F931F93CF93DF938C016D
:10017000C0E0D0E003C00E9463002196F801EC0FBC
:10018000FD1F80818111F7CFDF91CF911F910F91DA
:10019000089588E00E944900089583E08ABB08958D
:1001A00081E08BBB2FEF80E792E0215080409040B0
:1001B000E1F700C000001BBA2FEF80E792E021506A
:1001C00080409040E1F700C000000895CF93DF9396
:1001D0000E94CD00C0E0D0E018C00E94D00089B3DA
:1001E000823049F089B3833031F089B3823819F015
:1001F00089B3833849F481E08BBB81E090E0909330
:100200002301809322010AC02196C530D1052CF329
:1002100082E090E09093230180932201DF91CF91BF
:1002200008952FEF80E792E0215080409040E1F761
:1002300000C000001BBA2FEF80E792E02150804001
:100240009040E1F700C0000008950E94CD0089B3FE
:10025000833019F089B38338C1F70E94110183E01C
:1002600090E0909323018093220108950E94110150
:10027000089580EF87BB8FE088BB8FE39CE90197EF
:10028000F1F700C0000086B38F70809329018F3092
:10029000A1F78FE39CE90197F1F700C0000086B356
:1002A0008F70809329018F30A1F386B38F70809374
:1002B00029018F3071F320E030E016C0A9014C5FB6
:1002C0005F4F81E090E002C0880F991F4A95E2F7E6
:1002D000809588BB86B38F70809328018F3011F092
:1002E00020932A012F5F3F4F243031053CF320E05B
:1002F00030E020C08091290190E0022E02C0959547
:1003000087950A94E2F780FD13C080912A0190E05E
:1003100043E050E0BA01621B730B880F991F880FEE
:10032000991F8C599F4FFC01E60FF71F808108959C
:100330002F5F3F4F24303105ECF29BCF84E08ABB26
:10034000089584E08BBB2FEF89EF90E0215080402F
:100350009040E1F700C000001BBA2FEF89EF90E05A
:10036000215080409040E1F700C00000089584E0F3
:100370008BBB2FEF8DEE92E0215080409040E1F753
:1003800000C000001BBA2FEF89EF90E021508040A1
:100390009040E1F700C0000008951BBA2FEF89EFED
:1003A00090E0215080409040E1F700C000000895A7
:1003B000CF93C82F0E949E01C13411F0C13629F499
:1003C0000E94A1010E94B701A3C1C23411F0C2363C
:1003D00049F40E94B7010E94A1010E94A1010E945C
:1003E000A10196C1C33411F0C33649F40E94B7018C
:1003F0000E94A1010E94B7010E94A10189C1C434D9
:1004000011F0C43639F40E94B7010E94A1010E9484
:10041000A1017EC1C53411F0C53619F40E94A101B5
:1004200077C1C63411F0C63649F40E94A1010E947A
:10043000A1010E94B7010E94A1016AC1C73411F055
:10044000C73639F40E94B7010E94B7010E94A1018A
:100450005FC1C83411F0C83649F40E94A1010E945E
:10046000A1010E94A1010E94A10152C1C93411F051
:10047000C93629F40E94A1010E94A10149C1CA34D0
:1004800011F0CA3649F40E94A1010E94B7010E94EE
:10049000B7010E94B7013CC1CB3411F0CB3639F41F
:1004A0000E94B7010E94A1010E94B70131C1CC3462
:1004B00011F0CC3649F40E94A1010E94B7010E94BC
:1004C000A1010E94A10124C1CD3411F0CD3629F43F
:1004D0000E94B7010E94B7011BC1CE3411F0CE3685
:1004E00029F40E94B7010E94A10112C1CF3411F07A
:1004F000CF3639F40E94B7010E94B7010E94B701BC
:1005000007C1C03511F0C03749F40E94A1010E9413
:10051000B7010E94B7010E94A101FAC0C13511F0D4
:10052000C13749F40E94B7010E94B7010E94A1019E
:100530000E94B701EDC0C23511F0C23739F40E94F4
:10054000A1010E94B7010E94A101E2C0C33511F0D0
:10055000C33739F40E94A1010E94A1010E94A101A8
:10056000D7C0C43511F0C43719F40E94B701D0C008
:10057000C53511F0C53739F40E94A1010E94A101CF
:100580000E94B701C5C0C63511F0C63749F40E94B4
:10059000A1010E94A1010E94A1010E94B701B8C05F
:1005A000C73511F0C73739F40E94A1010E94B70185
:1005B0000E94B701ADC0C83511F0C83749F40E9498
:1005C000B7010E94A1010E94A1010E94B701A0C031
:1005D000C93511F0C93749F40E94B7010E94A10141
:1005E0000E94B7010E94B70193C0CA3511F0CA3703
:1005F00049F40E94B7010E94B7010E94A1010E9424
:10060000A10186C0C13359F40E94A1010E94B70123
:100610000E94B7010E94B7010E94B70179C0C2339E
:1006200059F40E94A1010E94A1010E94B7010E94F9
:10063000B7010E94B7016CC0C33359F40E94A101F5
:100640000E94A1010E94A1010E94B7010E94B7016E
:100650005FC0C43359F40E94A1010E94A1010E940D
:10066000A1010E94A1010E94B70152C0C53359F4F3
:100670000E94A1010E94A1010E94A1010E94A1016A
:100680000E94A10145C0C63359F40E94B7010E94DF
:10069000A1010E94A1010E94A1010E94A10138C0F4
:1006A000C73359F40E94B7010E94B7010E94A1010B
:1006B0000E94A1010E94A1012BC0C83359F40E94DD
:1006C000B7010E94B7010E94B7010E94A1010E94D8
:1006D000A1011EC0C93359F40E94B7010E94B7019D
:1006E0000E94B7010E94B7010E94A10111C0C0334E
:1006F00059F40E94B7010E94B7010E94B7010E94FD
:10070000B7010E94B70104C0C03211F40E94CD01AC
:10071000CF9108950F931F93CF93DF938C01C0E087
:10072000D0E00DC090E00E94D8012FEF89EF90E05B
:10073000215080409040E1F700C000002196F80170
:10074000EC0FFD1F80818111EDCFDF91CF911F91C3
:100750000F91089583E08ABB87E886B980E487B962
:10076000089597B1892B87B986B1806486B9349B87
:10077000FECF8AE18A95F1F700C024B185B190E0FF
:10078000982F8827820F911D089580E48BBF83E006
:1007900085BF789408950F931F93CF93DF938C01B7
:1007A000EB010E947D000E949E000E949100C80102
:1007B0000E94B30080EC0E944900CE010E94B30069
:1007C000DF91CF911F910F9108951F920F920FB655
:1007D0000F9211242F933F934F935F936F937F93C7
:1007E0008F939F93AF93BF93EF93FF9387E090E036
:1007F0000E94B103853F914094F084E790E00E940D
:10080000CB038EE790E00E948A0382E090E0909311
:100810002701809326010E94C9000E943601FF91A2
:10082000EF91BF91AF919F918F917F916F915F9168
:100830004F913F912F910F900FBE0F901F901895E1
:1008400083E990E00E94B3000895CF92DF92EF9287
:10085000FF920F931F93CF93DF93C0E0D0E0DFC0F0
:1008600065E970E08AE990E00E94CB0380EC0E9489
:1008700049000E943901082F0E9420040E9439017A
:10088000F82E0E9420040E943901E82E0E942004C4
:100890000E943901D82E0E9420048CE00E94490059
:1008A00010922701109226010E943901182F8837D3
:1008B00009F088C080EC0E944900802F0E946300EC
:1008C0008F2D0E9463008E2D0E9463008D2D0E944B
:1008D000630010922701109226010E943901C82E50
:1008E00028E7821342C080EC0E9449000E94200445
:1008F0000E9420040E9420040E9420040E943901CA
:100900008D3399F580916300081320C080916200B7
:10091000F8121CC080916100E81218C0809160003C
:10092000D81214C089EA90E00E94CB038FEF90E7C1
:1009300022E0815090402040E1F700C0000081E0BB
:1009400090E0909327018093260180C06AEB70E0CD
:1009500080EC90E00E94CB038FEF91EE24E0815079
:1009600090402040E1F700C000008DE3C8122AC08B
:1009700080916300081317C080916200F81213C0C1
:1009800080916100E8120FC080916000D8120BC006
:1009900089EA90E00E94CB0381E090E090932701E8
:1009A0008093260153C06AEB70E080EC90E00E94D7
:1009B000CB039FEF21EE84E0915020408040E1F78F
:1009C00000C000001D3351F580916300081317C06B
:1009D00080916200F81213C080916100E8120FC08C
:1009E00080916000D8120BC089EA90E00E94CB038E
:1009F00081E090E0909327018093260127C06AEB65
:100A000070E080EC90E00E94CB039FEF21EE84E049
:100A1000915020408040E1F700C000002196C33093
:100A2000D1050CF41DCF8FEC90E00E94CB039FEF1B
:100A300021EE84E0915020408040E1F700C00000AA
:100A400082E090E09093270180932601DF91CF917F
:100A50001F910F91FF90EF90DF90CF90089580EC61
:100A60000E9449000E943901809363000E94630044
:100A70000E943901809362000E9463000E94390144
:100A8000809361000E9463000E943901809360009E
:100A90000E94630008950E94AA030E94C5030E9459
:100AA000250480912601909127018130910509F05C
:100AB000B4C00E94E6008091220190912301813010
:100AC000910509F098C08CED90E00E94CB030E9444
:100AD00039018032B1F50E94250480912601909160
:100AE00027018130910509F565E970E088EE90E015
:100AF0000E94CB030E942F050E9439018D3309F01B
:100B000044C083EF90E00E94CB032FEF31EE84E0EE
:100B1000215030408040E1F700C0000083E090E0C9
:100B2000909327018093260130C0029771F59FEFC3
:100B300021EE34E0915020403040E1F700C0000049
:100B400024C08FEF91EE24E0815090402040E1F7E7
:100B500000C000000E942501809122019091230194
:100B6000039799F480E091E00E94CB033FEF81EE80
:100B700094E0315080409040E1F700C0000084E0F4
:100B800090E0909327018093260180912601909117
:100B90002701833091050CF49ACF83309105D9F465
:100BA0008CED90E00E94CB030E94250180912201F0
:100BB00090912301039709F040C08DE091E00E94DD
:100BC000CB032FEF31EE84E0215030408040E1F73D
:100BD00000C0000032C0049781F58DE091E00E94D2
:100BE000CB039FEF20E732E0915020403040E1F707
:100BF00000C0000022C0029701F56DE071E089E1BC
:100C000091E00E94CB038FEF91EE24E08150904061
:100C10002040E1F700C0000010C0029771F40E946C
:100C2000C9000E9436013AEA86EE96E921E0315089
:100C3000804090402040D9F700008FE19EE401976A
:0C0C4000F1F700C000002BCFF894FFCFAC
:100C4C003433323120303D2B3132332D343536783C
:100C5C003738392F54484546542021212100544817
:100C6C004546542047455454494E4720524F424222
:100C7C004544002A005F5F5F5F00454E544552209B
:100C8C0050415353574F524400434F5252454354D3
:100C9C002050415353574F5244005245545259001F
:100CAC0057524F4E472050415353574F52440054C4
:100CBC005259532052414E204F55540053414645F2
:100CCC00204F50454E4544005245534554204D4FFE
:100CDC0044450050415353574F5244205345540000
:100CEC00434C4F53494E47205341464500534146D0
:100CFC004520434C4F53454400544F4F204C4154D6
:020D0C004500A0
:00000001FF
